:100000000C946A000C9492000C9492000C94920050
:100010000C9492000C9492000C9492000C94920018
:100020000C9492000C9492000C9492000C94920008
:100030000C9492000C9492000C9492000C949200F8
:100040000C94E8110C9492000C94F7130C9428145F
:100050000C9492000C9492000C9492000C949200D8
:100060000C9492000C9492000000000024002700E1
:100070002A0000000000250028002B0000000000DE
:1000800023002600290004040404040404040202DA
:100090000202020203030303030301020408102007
:1000A0004080010204081020010204081020000012
:1000B0000007000201000003040600000000000029
:1000C0000000B701EE03AB053D075D072B095C0C93
:1000D0002F13ED1411241FBECFEFD8E0DEBFCDBF2C
:1000E00012E0A0E0B1E0E8E9FDE202C005900D9267
:1000F000A431B107D9F713E0A4E1B2E001C01D9229
:10010000A032B107E1F710E0C4EDD0E004C02297BF
:10011000FE010E94C616C23CD107C9F70E942A15EB
:100120000C94CA160C940000CF92DF92EF92FF92CB
:100130000F931F93DF93CF93CDB7DEB72C970FB6F6
:10014000F894DEBF0FBECDBF91E0E92E93E0F92E0B
:10015000C70140E855E260E070E00E946F1481E062
:1001600092E09A8389838091160290911702A09160
:100170001802B09119028B839C83AD83BE838AE3FE
:10018000C82E82E0D82EC6016AEA71E0AE014F5F48
:100190005F4F0E94DE068AE192E00E940F04C701D1
:1001A00060E071E00E9474158E01095F1F4FC80165
:1001B000B6010E941207C701B8010E94B2152C9621
:1001C0000FB6F894DEBF0FBECDBFCF91DF911F9168
:1001D0000F91FF90EF90DF90CF900895CF92DF9234
:1001E000EF92FF920F931F93DF93CF93CDB7DEB7BC
:1001F0002D970FB6F894DEBF0FBECDBF8E010F5FF7
:100200001F4FC8016AE172E00E943005E091CD0104
:10021000F091CE01C8010995882309F499C081E0C5
:1002200093E06EE071E00E949F15CC24C394E02E11
:10023000012F77C08E2D902F0E944802009709F45D
:1002400070C08E2D902F0E942E02182F81E093E017
:10025000612F0E94A3131A3009F05CC0CC2009F46E
:100260005CC08E2D902F69E171E00E949F158E2D4C
:10027000902F69E271E00E949F158E2D902F61E40E
:1002800071E00E949F158E2D902F63E571E00E9412
:100290009F158E2D902F0E948A158E2D902F6EE522
:1002A00071E00E949F158E2D902F6EE671E00E94E6
:1002B0009F15EE24FF248E010F5F1F4F8E2D0E948D
:1002C0003E116C01C80165E771E00E947415C80118
:1002D000B7014AE050E00E947116C80163E871E07E
:1002E0000E947415C801B6014AE050E00E947116E0
:1002F000C80168E871E00E949F150894E11CF11C98
:1003000086E0E816F104D1F6C8016FE871E00E94BA
:100310009F150EC01D3021F404C0CC24C39401C02D
:10032000CC248E2D902F0E941903882309F082CFB0
:1003300061E070E080E090E00E946412CE010196DE
:100340000E943D0381E093E067E971E00E949F1500
:100350002D960FB6F894DEBF0FBECDBFCF91DF91C3
:100360001F910F91FF90EF90DF90CF9008950F9322
:1003700080E292E060E040E020E000E00E941313A1
:1003800084E192E060EC48EA24E601EB0E9413135A
:100390008AE192E060E570E00E945D040F910895AB
:1003A000DF93CF930F92CDB7DEB76983DC01ED9178
:1003B000FC910280F381E02DBE016F5F7F4F41E031
:1003C00050E009950F90CF91DF910895CF93DF937F
:1003D000EC0107C0E881F9810680F781E02DCE01AC
:1003E0000995E881F9810480F581E02DCE01099518
:1003F000009781F7DF91CF91089521E0FC0184857A
:10040000843009F420E0822F08950F931F93DF9327
:10041000CF930F92CDB7DEB78C01DC01ED91FC914B
:100420000480F581E02D0995009751F0F80184854D
:10043000BE016F5F7F4F0E941D0E298130E002C018
:100440002FEF3FEFC9010F90CF91DF911F910F91D7
:100450000895FC0184850E94DB0D0895DF93CF93FE
:100460000F92CDB7DEB7FC018485BE016F5F7F4F71
:1004700041E050E00E94DB0D009719F0298130E047
:1004800002C02FEF3FEFC9010F90CF91DF91089588
:10049000FC016485643039F08AE592E00E941F1007
:1004A000282F392F02C020E030E0C9010895EF92D3
:1004B000FF920F931F93CF93DF938C01EA01FC010E
:1004C0008485843019F481E090E007C00E94880D93
:1004D000009739F481E090E0F80193838283C0E0D3
:1004E000D0E0CE01DF91CF911F910F91FF90EF905F
:1004F000089590E00496982F8827860F971F0E94F2
:10050000700F089563E070E00E9479020895FC0185
:100510001382128228EE33E040E050E024833583DA
:100520004683578387EB91E09183808364870895A6
:10053000CF93DF93EC010E940913CE0108960E942D
:10054000A908DF91CF9108956F927F928F929F9229
:10055000AF92BF92CF92DF92EF92FF920F931F93D1
:10056000DF93CF93CDB7DEB7E3970FB6F894DEBF36
:100570000FBECDBF5C014B013A0133E1E32EF12CFC
:10058000EC0EFD1EC7010E9498026E010894C11C6A
:10059000D11CC6010E9409138E01095F1F4FC801BB
:1005A0006AE372E00E942C07C701B8010E94360975
:1005B000C701B401A6010E94BE0B9C0181309105C8
:1005C000C9F4D501ED91FC910484F585E02D81E01D
:1005D00092E09E878D878B819C81AD81BE818F87C4
:1005E000988BA98BBA8BC501BE01635F7F4FA301B6
:1005F00009959C01C901E3960FB6F894DEBF0FBEC2
:10060000CDBFCF91DF911F910F91FF90EF90DF90C1
:10061000CF90BF90AF909F908F907F906F900895F4
:10062000FC018485843019F00E948202089580E0E4
:100630000895CF93DF93EC018C858430D1F0CE0107
:100640000E941003843181F0882371F0883161F0B9
:100650008C3161F4E881F9810480F581E02DCE01CF
:10066000099521E0009719F420E001C021E0822FD4
:1006700001C080E0DF91CF910895EF92FF920F9338
:100680001F93CF93DF93EC018C858430A1F10E94FE
:10069000800D0E9430127B018C01CE010E9410035C
:1006A000882319F10E9430126E197F09800B910B7B
:1006B000683E23E0720720E0820720E09207A8F45A
:1006C00061E070E080E090E00E946412E6CF8C85EB
:1006D0000E94E30CEC85F0E0EE0FFF1FEE5CFD4F97
:1006E0001182108284E08C8706C0CE010E94100324
:1006F000882381F3ECCFDF91CF911F910F91FF9071
:10070000EF900895BF92CF92DF92EF92FF920F93F6
:100710001F93CF93DF93EC018B016A018C858430AA
:1007200009F04FC0EE24FF24BE2C8E2D0E948202C1
:10073000882311F0883111F4BC8607C00894E11CAD
:10074000F11C84E0E816F10479F78C858430C9F156
:100750002091B0013091B1012F5F3F4F3093B10133
:100760002093B0012115310531F420E034E03093BD
:10077000B1012093B0014091B0015091B10161E00D
:1007800020E00E94F20CB8016E5F7F4F8C85A601BD
:100790000E944A0D09C061E070E080E090E00E9494
:1007A0006412CE010E941003882319F484E08C8720
:1007B00008C0CE010E941003873169F721E030E0C4
:1007C00002C020E030E0C901DF91CF911F910F916D
:1007D000FF90EF90DF90CF90BF9008950F9386E247
:1007E00092E060E040E020E000E00E9413130F91EF
:1007F0000895DF93CF930F92CDB7DEB76983DC0105
:10080000ED91FC910280F381E02DBE016F5F7F4F7F
:1008100041E050E009950F90CF91DF910895CF927C
:10082000DF92EF92FF920F931F93DF93CF93CDB799
:10083000DEB72D970FB6F894DEBF0FBECDBF6C01AB
:1008400000E010E07E010894E11CF11CC701602F5C
:100850000E948702C7010E9410038823D1F4D601A9
:1008600014964D915C911597802F61E020E00E94D5
:10087000F20C802F0E94310DF801EE0FFF1FEE5C8D
:10088000FD4FD60114968D919C911597918380838D
:1008900005C00F5F1F4F04301105C1F62D960FB62E
:1008A000F894DEBF0FBECDBFCF91DF911F910F91A6
:1008B000FF90EF90DF90CF900895FC011382128299
:1008C00083ED91E0918380837583648308958F9293
:1008D0009F92AF92BF92CF92DF92EF92FF920F93CF
:1008E0001F93DF93CF93CDB7DEB72D970FB6F89454
:1008F000DEBF0FBECDBF6C0122E3A22E22E0B22EDE
:10090000EE24FF24882499248E010F5F1F4FC80115
:100910006E2D0E948702D5012D913D915D01F6015A
:100920008481958128173907B1F4C8010E9410030A
:10093000843171F0C8010E9410038C3161F4C80148
:100940000E944802009739F4C8010E943D0303C089
:1009500091E0892E912C0894E11CF11CF4E0EF1633
:10096000F104A9F68114910441F4D601ED91FC91B2
:100970000480F581E02DC60109952D960FB6F894F7
:10098000DEBF0FBECDBFCF91DF911F910F91FF90C2
:10099000EF90DF90CF90BF90AF909F908F90089591
:1009A0004F925F926F927F928F929F92AF92BF927F
:1009B000CF92DF92EF92FF920F931F93DF93CF932B
:1009C000CDB7DEB72D970FB6F894DEBF0FBECDBF03
:1009D0005C013B012A010E94670432E3832E32E06E
:1009E000932E00E010E0CC24DD247E010894E11C6D
:1009F000F11CC701602F0E948702F40121913191FF
:100A00004F01F501848195812817390761F4C701E9
:100A10000E941003873139F4C701B301A2010E947B
:100A20005702C80ED91E0F5F1F4F0430110509F77A
:100A3000C6012D960FB6F894DEBF0FBECDBFCF9185
:100A4000DF911F910F91FF90EF90DF90CF90BF90BB
:100A5000AF909F908F907F906F905F904F90089590
:100A60008F929F92AF92BF92CF92DF92EF92FF92BE
:100A70000F931F93DF93CF93CDB7DEB72D970FB6AC
:100A8000F894DEBF0FBECDBF4C016B01CB010E94BD
:100A9000670442E3A42E42E0B42EEE24FF248E012C
:100AA0000F5F1F4FC8016E2D0E948702F501219133
:100AB00031915F01F601848195812817390759F535
:100AC000C8010E941003873129F0C8010E94100359
:100AD0008C3109F5C8010E9448020097E1F0F40149
:100AE0008B819C81938382838D819E81AF81B88528
:100AF00084839583A683B78389859A85AB85BC85D6
:100B000080879187A287B38787EB91E09183808369
:100B10008D8584870CC00894E11CF11CF4E0EF166D
:100B2000F10409F0BFCFC40164E00E948702C40150
:100B30002D960FB6F894DEBF0FBECDBFCF91DF91DB
:100B40001F910F91FF90EF90DF90CF90BF90AF90EB
:100B50009F908F9008950F938CE292E060E040E0C8
:100B600020E000E00E9413130F910895BC0181E082
:100B700090E044E050E00E943D0F0895BC0185E004
:100B800090E044E050E00E943D0F0895BC0189E0F0
:100B900090E046E050E00E943D0F0895BC018FE0D8
:100BA00090E044E050E00E943D0F0895BC018FE0CA
:100BB00090E044E050E00E94721008958F929F925E
:100BC000AF92BF92CF92DF92EF92FF920F931F935B
:100BD000CF93DF934C015B016A01E9018AE592E062
:100BE0000E94040FC5010E94C605C60102960E941C
:100BF000CE05C80102960E94B605C70102960E9462
:100C0000BE058A819B81AC81BD81F401828393837F
:100C1000A483B583DF91CF911F910F91FF90EF9047
:100C2000DF90CF90BF90AF909F908F9008956F927C
:100C30007F928F929F92AF92BF92CF92DF92EF926C
:100C4000FF920F931F93DF93CF93CDB7DEB76E97CD
:100C50000FB6F894DEBF0FBECDBF3C014B015A0169
:100C600069017801CE0101966FEF4FEF2FEF00E0A1
:100C70000E94131321E032E038872F83F50182812F
:100C80009381A481B58189879A87AB87BC873E878A
:100C90002D87F60182819381A481B5818F87988BFE
:100CA000A98BBA8B3C8B2B8BF70182819381A4811A
:100CB000B5818D8B9E8BAF8BB88F3A8F298F8B81AF
:100CC0009C81AD81BE818B8F9C8FAD8FBE8FC30108
:100CD000B401AE01495F5F4F9E01235F3F4F8E011C
:100CE0000D5E1F4FA9E1EA2EF12CEC0EFD1E0E94B5
:100CF000DE056E960FB6F894DEBF0FBECDBFCF9166
:100D0000DF911F910F91FF90EF90DF90CF90BF90F8
:100D1000AF909F908F907F906F900895CF92DF92C9
:100D2000EF92FF920F931F93DF93CF93CDB7DEB770
:100D300068970FB6F894DEBF0FBECDBFF901DA0198
:100D400012960D911D912D913C9115970B831C834B
:100D50002D833E8341E052E058874F8309871A87ED
:100D60002B873C875E874D87C280D380E480F580E7
:100D7000CF86D88AE98AFA8A5C8B4B8B0D8B1E8BC7
:100D80002F8B388F21E0288FAE01495F5F4F9E0186
:100D9000235F3F4F8E010D5E1F4F0E94170668961E
:100DA0000FB6F894DEBF0FBECDBFCF91DF911F917C
:100DB0000F91FF90EF90DF90CF900895DF93CF9346
:100DC000CDB7DEB762970FB6F894DEBF0FBECDBFCA
:100DD000FA0122813381448155812B833C834D83E9
:100DE0005E83E1E0F2E0F887EF8329873A874B875B
:100DF0005C87FE87ED872F87388B498B5A8B21E0E4
:100E00002A8BAE01495F5F4F9E01235F3F4F0E94D7
:100E10008E0662960FB6F894DEBF0FBECDBFCF919F
:100E2000DF910895EF92FF920F931F93CF93DF937B
:100E30008C01E82EE7017E01F12EC7010E94091303
:100E4000C70102960E94D605C801DF91CF911F917C
:100E50000F91FF90EF900895FC0121E032E0318383
:100E60002083DB0112962D913D914D915C91159758
:100E7000228333834483558308950F9380E492E063
:100E800060E040E020E000E00E9413138AE392E07B
:100E90000E9409130F910895FC0121E032E0318393
:100EA0002083DB0151962D913D914D915C9154979A
:100EB000228333834483558308950F9386E492E01D
:100EC00060E040E020E000E00E9413130F910895DD
:100ED000DC01ED91FC91008CF18DE02D09950895D8
:100EE000FC01858996890895DF93CF930F92CDB742
:100EF000DEB76983DC01ED91FC910280F381E02D86
:100F0000BE016F5F7F4F41E050E009950F90CF9198
:100F1000DF910895CF93DF93EC0107C0E881F98159
:100F20000680F781E02DCE010995E881F9810480E2
:100F3000F581E02DCE010995009781F7DF91CF91E2
:100F400008950F931F93DF93CF930F92CDB7DEB722
:100F50008C01DC01ED91FC910480F581E02D099577
:100F6000009751F0F8018485BE016F5F7F4F0E94AA
:100F70001D0E298130E002C02FEF3FEFC9010F9015
:100F8000CF91DF911F910F910895FC0184850E94FC
:100F9000DB0D0895DF93CF930F92CDB7DEB7FC0141
:100FA0008485BE016F5F7F4F41E050E00E94DB0D02
:100FB000009719F0298130E002C02FEF3FEFC901FF
:100FC0000F90CF91DF910895EF92FF920F931F93AF
:100FD000DF93CF93CDB7DEB728970FB6F894DEBF77
:100FE0000FBECDBF8C01DC01ED91FC910480F58139
:100FF000E02D09951816190644F5F80184857E013F
:101000000894E11CF11CB70148E050E00E94DB0DA0
:10101000282F392F12161306D4F4C8010F96B701E2
:101020000E941F139D8180E02E81820F911DD801A7
:1010300056969C938E935597ED91FC910480F58183
:10104000E02DC80109959C0102C020E030E0C901F3
:1010500028960FB6F894DEBF0FBECDBFCF91DF91BB
:101060001F910F91FF90EF900895CF93DF93EC01C4
:10107000FB019A016F89788D8C85AF010E942C0E3F
:101080009C018F89988D820F931F988F8F8BC90138
:10109000DF91CF910895FC0184850E94880E089508
:1010A000FC01108E178A6E5F7F4F84850E94620E4E
:1010B0000895CF93DF93EC018C85843061F00E941A
:1010C000E30CEC85F0E0EE0FFF1FEE5CFD4F1182AC
:1010D000108284E08C87DF91CF910895FC018AE52E
:1010E00092E064850E941F100895DF92EF92FF92B4
:1010F0000F931F93CF93DF93EC018B018C8584308A
:10110000F9F4EE24FF24DE2C8E2D0E948202882327
:1011100011F0883111F4DC8607C00894E11CF11C41
:1011200084E0E816F10479F78C85843049F01E8755
:101130000D8762E0A80120E00E94F20C81E001C06E
:1011400080E0DF91CF911F910F91FF90EF90DF90A2
:101150000895FC011382128228EE33E040E050E053
:1011600024833583468357838DED91E0918380837B
:1011700084E08487CF010F960E94091308956F922F
:101180007F928F929F92AF92BF92CF92DF92EF9217
:10119000FF920F931F93DF93CF93CDB7DEB7E39703
:1011A0000FB6F894DEBF0FBECDBF5C014B013A0114
:1011B00033E1E32EF12CEC0EFD1EC7010E949802D4
:1011C0006E010894C11CD11CC6010E9409138E0136
:1011D000095F1F4FC8016AE372E00E942C07C70134
:1011E000B8010E943609C701B401A6010E94BE0BD6
:1011F0009C0181309105C9F4D501ED91FC910088E5
:10120000F189E02D81E092E09E878D878B819C8122
:10121000AD81BE818F87988BA98BBA8BC501BE012A
:10122000635F7F4FA30109959C01C901E3960FB647
:10123000F894DEBF0FBECDBFCF91DF911F910F910C
:10124000FF90EF90DF90CF90BF90AF909F908F90E6
:101250007F906F9008950F938CE492E060E040E0FF
:1012600020E000E00E9413130F910895FC01DB01C0
:1012700012962D913D914D915C9115972283338368
:1012800044835583178216820895E62FF72FDF01D6
:101290008D918823E9F780E090E020E030E020C0E5
:1012A0008F3F910509F09CF5DA01A20FB31F12964A
:1012B0008C9312972F5F3F4F80E090E011C0BC01EC
:1012C000660F771FB3E0880F991FBA95E1F7680F93
:1012D000791F8A2F992787FD9095C097860F971FB2
:1012E000A191AA2331F0243031051CF4AE3239F734
:1012F000D7CF8F3F910509F054F4243031053CF4E9
:10130000240F351FF901828321E030E002C020E084
:1013100030E0C90108956F927F928F929F92AF92B1
:10132000BF92CF92DF92EF92FF920F931F93DF93C2
:10133000CF9300D00F92CDB7DEB77C01A62E872EBB
:101340000E943012F701778366838701085F1F4F81
:10135000B7016A5F7F4FC80142E050E00E94350844
:1013600081E090E09B838A8392E0E92EF12CEC0EE1
:10137000FD1EC801B70142E050E00E94350880E040
:1013800091E09B838A83C801B70142E050E00E944C
:1013900035081B821A82C801B70142E050E00E9462
:1013A0003508C801B70142E050E00E943508C80185
:1013B000B70142E050E00E943508CA2CD82CB82C66
:1013C0003E010894611C711C1FC0F5016F018191E1
:1013D000882311F08E32D1F746018A189B08181421
:1013E000190474F48C2D8A198983C801B30141E072
:1013F00050E00E943508C801B501A4010E943508DB
:1014000056010894A11CB11CF60180818823E9F6DD
:101410001982C801BE016F5F7F4F41E050E00E941A
:101420003508C12C81E0D82EDB82CA82C801B70101
:1014300042E050E00E943508DB82CA82C801B70151
:1014400042E050E00E94350881E090E00F900F905C
:101450000F90CF91DF911F910F91FF90EF90DF9050
:10146000CF90BF90AF909F908F907F906F90089596
:101470002F923F924F925F926F927F928F929F92A4
:10148000AF92BF92CF92DF92EF92FF920F931F9392
:10149000DF93CF93CDB7DEB76B970FB6F894DEBF6F
:1014A0000FBECDBF6C014B015B8F4A8F0E94301283
:1014B0002B013C0158E0E52EF12CEC0CFD1CAA247C
:1014C000BB2412C00E94301264197509860997095D
:1014D00086169706A806B90608F427C162E370E0ED
:1014E00080E090E00E946412C7010E94E407181691
:1014F000190644F7F60182809380A480B5808E019E
:10150000085F1F4FC801B7010E944C07F801828194
:101510009381A481B58188169906AA06BB0609F0B5
:1015200007C1F601858D968D8533910509F000C1BF
:101530001EC18E01025F1F4FC701B8014CE050E091
:101540000E94C507F80182819381982789279827EF
:101550009B838A83F601468157812E853F854217FA
:10156000530711F497FD06C0C7010E948A072CEFAC
:101570003FEFE3C08F709270009731F0C7010E9477
:101580008A072BEF3FEFD9C0F8012680378032243D
:10159000232432242114310441F0CC24DD245801C9
:1015A0004E010894811C911C29C0C7010E948A0722
:1015B0002AEF3FEFC2C0C701B40141E050E00E94F2
:1015C000C5078981882321F409C0C7010E94CA0781
:1015D0008981982F915099838823B9F7898188232D
:1015E00051F700E010E0C7010E94CA070F5F1F4FCC
:1015F00004301105C1F70894C11CD11CF501848188
:101600009581982789279827C816D906A0F2CC2457
:10161000DD244E010894811C911C44E0A42EB12CC1
:10162000AC0EBD1E36E0432E512C4C0E5D1E22E04A
:10163000622E712C6C0E7D1EC701B40141E050E09A
:101640000E94C5078981982F907C69F4882321F432
:101650000EC0C7010E94CA078981982F91509983B3
:101660008823B9F704C0C7010E94CA07198289817B
:10167000882311F7C701B50142E050E00E94C50779
:10168000C701B20142E050E00E94C50704E010E04B
:10169000C7010E94CA0701501040D1F7C701B3012A
:1016A00042E050E00E94C5078C819D81F1E08030CE
:1016B0009F0719F000E010E023C08E819F8121E098
:1016C00080309207B9F78A819B81E4E080309E07E1
:1016D00031F0C7010E948A0727EF3FEF2EC06A8DC5
:1016E0007B8D6E5F7F4FC70144E050E00E94C507CD
:1016F00021E030E022C0C7010E94CA070F5F1F4FE0
:101700008A819B819827892798270817190798F3BA
:101710000894C11CD11CC214D30408F48DCFC70196
:101720000E948A0726EF3FEF08C02FEF3FEF05C06A
:101730002EEF3FEF02C02DEF3FEFC9016B960FB6C2
:10174000F894DEBF0FBECDBFCF91DF911F910F91F7
:10175000FF90EF90DF90CF90BF90AF909F908F90D1
:101760007F906F905F904F903F902F900895C701AA
:101770000E946E088C309105F4F2DBCEAF92BF92DE
:10178000CF92DF92EF92FF920F931F93DF93CF934D
:10179000CDB7DEB728970FB6F894DEBF0FBECDBF2A
:1017A0008C016B015A010E944509009709F06AC03B
:1017B000F8012281338144815581809154029091B6
:1017C0005502A0915602B0915702281739074A07CF
:1017D0005B0709F45AC068E0E62EF12CE00EF11E1A
:1017E0000E9430126F70707060507C4FC7010E9471
:1017F0007508813009F04CC081E092E09A838983BA
:10180000F80182819381A481B5818B839C83AD8310
:10181000BE83C701BE016F5F7F4F45E350E00E946A
:1018200050089C01009731F1C801B6010E948B0954
:101830000097F1F0C7010E944B089C01009731F41A
:1018400019C0FFEF2F3F3F07A9F402C0CC24DD24CD
:10185000C80168E873E1A5010E94380A282F392FD2
:101860000894C11CD11C83E0C816D10419F0E9CF3B
:1018700020E030E0C7012F8338870E9459082F816C
:10188000388508C021E030E005C02EEF3FEF02C0F0
:1018900020E030E0C90128960FB6F894DEBF0FBEF5
:1018A000CDBFCF91DF911F910F91FF90EF90DF900F
:1018B000CF90BF90AF9008950F9382E592E060E0E3
:1018C00040E020E000E00E9413130F91089562E0D1
:1018D00070E00E94790208950F931F93182F68E219
:1018E00070E00E947902082F812F69E270E00E9467
:1018F0007902502F40E0282F30E0242B352BC901EE
:101900001F910F91089590E00496982F8827860FD5
:10191000971F642F0E94B80E0895462F62E070E072
:101920000E94830C08950F931F93182F062F472FA3
:1019300060E170E00E94830C812F61E170E0402F34
:101940000E94830C1F910F9108950F931F93182FDE
:10195000062F472F68E270E00E94830C812F69E216
:1019600070E0402F0E94830C1F910F910895462F25
:1019700060E070E00E94830C08950F931F93182F6E
:10198000062F472F64E070E00E94830C812F65E0F2
:1019900070E0402F0E94830C1F910F910895FB016E
:1019A000BA0190E00496982F88278E0F9F1FA901F7
:1019B0000E943D0F0895AB016CE070E024E030E040
:1019C0000E94CF0C08951F93182F8AE592E0612F93
:1019D00040E150E00E941211812F6FEF0E948D0CA8
:1019E0001F910895EF92FF921F93DF93CF9300D042
:1019F000CDB7DEB7182F7A01862F8150853040F59C
:101A0000812F2A8369830E94E30C2A816981622BDA
:101A1000812F0E94B70CE114F10419F0812FB70156
:101A20000CC020915802309159022F5F3F4F3093E4
:101A3000590220935802812FB9010E94BD0C8AE5FA
:101A400092E0612F41E050E00E94121181E001C05C
:101A500080E00F900F90CF91DF911F91FF90EF905A
:101A60000895DF93CF930F92CDB7DEB7682F6983C8
:101A70000E9482026981833141F48AE592E042E06A
:101A800050E00E94121181E001C080E00F90CF91E0
:101A9000DF9108951F93CF93DF93182FFB01EA0185
:101AA00080818F3F51F481818F3F91F482818F3FFC
:101AB00079F483818F3F61F41EC0882349F48181CA
:101AC000882331F48281882319F48381882399F053
:101AD000209789F0812FBF010E94DB0C812FBE016E
:101AE0000E94930C8AE592E0612F44E050E00E944E
:101AF000121181E001C080E0DF91CF911F91089524
:101B0000682F8AE592E048E050E00E9412110895A3
:101B1000CF92DF92EF92FF921F93CF93DF93182F14
:101B20007B01C42EE6016E01D52EE60138E0C130FE
:101B3000D30710F0C0E0D8E08AE592E0612F0E9460
:101B400054106C01812F0E948202873111F08C3178
:101B500021F4CC16DD0680F302C0C0E0D0E08AE5B7
:101B600092E0612FA7019E010E94FC0F8AE592E09E
:101B7000612F40E250E00E9412110BC0812F0E94A1
:101B80008202882331F4812F0E94E30CC0E0D0E070
:101B900009C0812F0E94670C84FFF0CF812F60E184
:101BA0000E948D0CCE01DF91CF911F91FF90EF909D
:101BB000DF90CF900895CF92DF92EF92FF920F9334
:101BC0001F93CF93DF93F82E6B018A018AE592E091
:101BD0006F2D0E941F10EC01009761F48F2D0E9461
:101BE0008202843101F18823F1F08C31E1F0CFEFF2
:101BF000DFEF07C00817190720F40115110589F058
:101C0000E8018AE592E06F2DA6019E0100E00E94A6
:101C1000E1108AE592E06F2D40E450E00E9412113D
:101C200002C0C0E0D0E0CE01DF91CF911F910F91B3
:101C3000FF90EF90DF90CF9008950F93282FAB0186
:101C40008AE592E0622F21E030E001E00E94E1109D
:101C500081E090E00F9108958F929F92AF92BF9292
:101C6000CF92DF92EF92FF920F931F93CF93DF9368
:101C7000182F6B015A01E9018AE592E0612F0E9459
:101C800054108C179D0738F48AE592E0612F0E946A
:101C900054107C0101C07E018AE592E0612FA6010B
:101CA000950187010E94AC0FC701DF91CF911F9171
:101CB0000F91FF90EF90DF90CF90BF90AF909F90EB
:101CC0008F9008951F93CF93DF93182FFB01EA01A4
:101CD0008081882349F48181882331F4828188239B
:101CE00019F48381882369F0209759F0812FBF016F
:101CF0000E94DB0C812FBE010E94930C21E030E09A
:101D000002C020E030E0C901DF91CF911F9108951A
:101D10001F93182F8AE592E0612F40E250E00E9465
:101D200012110CC0812F0E94670C83FF07C0812F06
:101D300068E10E948D0C20E030E00BC0812F0E94F2
:101D4000670C84FFEFCF812F60E10E948D0C21E0B2
:101D500030E0C9011F9108958EBD0DB407FEFDCF7F
:101D60008EB50895229A08952A9808952A9A08957A
:101D70001F93DF93CF9300D0CDB7DEB7182F6A83C0
:101D800099830E94B40E80EF0E94AC0E9981892F36
:101D90000E94AC0E812F0E94AC0E6A81862F0E9499
:101DA000AC0E0E94B60E81E00F900F90CF91DF91A4
:101DB0001F910895462F61E070E00E94830C089502
:101DC0000F931F93182F062F472F64E270E00E9495
:101DD000830C812F65E270E0402F0E94830C1F91DD
:101DE0000F910895682F80E090E00E94B80E08954A
:101DF000682F8BE190E00E94B80E0895682F8AE169
:101E000090E00E94B80E0895CF93DF93EC016CE24E
:101E100071E080E090E00E9464120E941F110E9415
:101E2000B20E80E80E94F20E85E50E94F80E85E56C
:101E30000E94FE0E80E090E49983888380E090E623
:101E40009987888780E098E49B838A8380E098E67E
:101E50009B878A8780E090E59D838C8380E090E774
:101E60009D878C8780E098E59F838E8380E098E74C
:101E70009F878E87DF91CF910895CF92DF92EF9267
:101E8000FF920F931F93CF93DF936C01EA01E62E2D
:101E9000F72E00E010E017C00E94B40E80EF0E9401
:101EA000AC0E8D2D0E94AC0E8C2D0E94AC0E0894B1
:101EB000C11CD11CF70181917F010E94AC0E0E94D0
:101EC000B60E0F5F1F4F0C171D0730F3CE01DF91C9
:101ED000CF911F910F91FF90EF90DF90CF900895D9
:101EE0001F93DF93CF930F92CDB7DEB7182F99834F
:101EF0000E94B40E8FE00E94AC0E9981892F0E943F
:101F0000AC0E812F0E94AC0E80E00E94AC0E898343
:101F10000E94B60E89810F90CF91DF911F91089595
:101F200061E070E00E94790208950F931F93182FCB
:101F300064E270E00E947902082F812F65E270E070
:101F40000E947902502F40E0282F30E0242B352BBF
:101F5000C9011F910F9108959F92AF92BF92CF92A6
:101F6000DF92EF92FF920F931F93CF93DF937C0149
:101F7000962E6A015901862F0E94950FC80ED91E10
:101F800096013770892D90E0880F991FE80EF91E91
:101F9000F70180819181820F931FA901400F511F8A
:101FA000F8E041305F0790F0C0E0D8E0C21BD30BEF
:101FB000B501AE010E943D0FB5016C0F7D1FA80158
:101FC0004C1B5D0BF7018081918102C0B501A80116
:101FD0000E943D0FB601600F711F892D0E94E00E17
:101FE000DF91CF911F910F91FF90EF90DF90CF90F5
:101FF000BF90AF909F9008950F931F93FA018901AE
:1020000040E050E09F010E94AC0F1F910F91089596
:102010000F931F93182F66E270E00E947902082F39
:10202000812F67E270E00E947902502F40E0282F54
:1020300030E0242B352BC9011F910F910895EF92A9
:10204000FF920F931F93CF93DF93F62EC0E0D0E063
:102050008F2D0E9408108C01009721F08F2D0E9477
:102060000810EC01C017D10799F7CE01DF91CF918D
:102070001F910F91FF90EF9008950F931F93182FCA
:1020800060E270E00E947902082F812F61E270E027
:102090000E947902502F40E0282F30E0242B352B6E
:1020A000C9011F910F910895EF92FF920F931F9313
:1020B000CF93DF93F62EC0E0D0E08F2D0E943D102D
:1020C0008C01009721F08F2D0E943D10EC01C0176C
:1020D000D10799F7CE01DF91CF911F910F91FF901A
:1020E000EF900895CF92DF92EF92FF920F931F939C
:1020F000CF93DF936C01EA01E62EF72E00E010E0AB
:1021000018C00E94B40E8FE00E94AC0E8D2D0E946C
:10211000AC0E8C2D0E94AC0E0894C11CD11C80E02A
:102120000E94AC0EF70181937F010E94B60E0F5FF3
:102130001F4F0C171D0728F3CE01DF91CF911F9180
:102140000F91FF90EF90DF90CF900895CF92DF92A4
:10215000EF92FF920F931F93CF93DF936901780162
:102160005770C62FD0E02496CC0FDD1FC80FD91FA3
:1021700088819981840F951F9801240F351F68E08D
:102180002130360788F000E018E0041B150BB6017B
:10219000A8010E947210B601600F711FA701401BB9
:1021A000510B8881998102C0B601A8010E9472106A
:1021B000DF91CF911F910F91FF90EF90DF90CF9023
:1021C00008958F929F92AF92BF92CF92DF92EF923B
:1021D000FF920F931F93CF93DF935C01E62E4A018A
:1021E0006901F02E862F0E946C0CEC01C5016E2D4A
:1021F000AE01940186010E94A610FF2031F4BE01B9
:102200006C0D7D1D8E2D0E94A50CDF91CF911F912D
:102210000F91FF90EF90DF90CF90BF90AF909F9085
:102220008F9008951F93162F862F642F0E94DA0E29
:10223000812F0E94900F8823D9F71F9108958DE078
:1022400061E00E948C118BE061E00E948C118AE0B9
:1022500061E00E948C118DE060E00E94B0118BE083
:1022600060E00E94B0118AE061E00E94B0118CB57C
:1022700080618CBD8CB580648CBD08958E3008F073
:102280008E5087709091B2019295990F990F907C22
:10229000982B90937C0080917A00806480937A00E0
:1022A00080917A0086FDFCCF2091780030917900F2
:1022B000932F80E030E0282B392BC901089583301B
:1022C00071F0843028F48130A1F0823021F514C0FF
:1022D0008630B1F08730D1F08430E9F404C08091C9
:1022E00080008F7703C0809180008F7D8093800075
:1022F000089584B58F7702C084B58F7D84BD08951D
:102300008091B0008F778093B00008958091B000E5
:102310008F7D8093B000089590E0FC01E656FF4F5A
:102320002491FC01EA57FF4FE491EE23C1F0F0E065
:10233000EE0FFF1FE859FF4F85919491DC01662352
:1023400041F49FB7F8948C91209582238C939FBF82
:1023500008959FB7F8948C91822B8C939FBF08951A
:102360000F931F93DF93CF930F92CDB7DEB7282F34
:1023700030E0F901E255FF4F8491F901E656FF4F35
:1023800014912A573F4FF90104910023D9F0882373
:1023900021F069830E945F116981E02FF0E0EE0F68
:1023A000FF1FEE58FF4F85919491DC019FB7F89481
:1023B000662321F48C911095812302C08C91812B8E
:1023C0008C939FBF0F90CF91DF911F910F91089534
:1023D0001F920F920FB60F9211242F933F938F935A
:1023E0009F93AF93BF9380916E0290916F02A091E3
:1023F0007002B0917102309172020196A11DB11D5F
:10240000232F2D5F2D3720F02D570196A11DB11DD3
:102410002093720280936E0290936F02A0937002D9
:10242000B093710280916A0290916B02A0916C024C
:10243000B0916D020196A11DB11D80936A02909327
:102440006B02A0936C02B0936D02BF91AF919F910C
:102450008F913F912F910F900FBE0F901F90189565
:102460008FB7F89420916E0230916F024091700204
:10247000509171028FBFB901CA0108959FB7F894B6
:1024800020916A0230916B0240916C0250916D0272
:1024900086B5A89B06C08F3F21F02F5F3F4F4F4F5F
:1024A0005F4F9FBF542F432F322F2227280F311DFC
:1024B000411D511D82E0220F331F441F551F8A9575
:1024C000D1F7B901CA010895EF92FF920F931F93BC
:1024D000CF93DF937B018C010E943E12EB010FC072
:1024E0000E943E126C1B7D0B83E0683E780738F03B
:1024F0000894E108F10801091109C851DC4FE11401
:10250000F1040105110561F7DF91CF911F910F9142
:10251000FF90EF900895789484B5826084BD84B56F
:10252000816084BD85B5826085BD85B5816085BDCE
:10253000EEE6F0E0808181608083E1E8F0E01082E7
:10254000808182608083808181608083E0E8F0E028
:10255000808181608083E1EBF0E080818460808312
:10256000E0EBF0E0808181608083EAE7F0E0808149
:1025700084608083808182608083808181608083A9
:102580008081806880831092C10008958F929F920D
:10259000AF92BF92CF92DF92EF92FF920F931F9371
:1025A000CF93DF934C017B0182E0A82EB12CA80CC5
:1025B000B91CC0E0D0E0CC24DD24F50161915F01BD
:1025C000C7014AE050E00E942E168C01C7016EE25E
:1025D0000E947715080F191FC00ED11E2196C33017
:1025E000D10559F7C701F40165814AE050E00E9426
:1025F0002E16C80ED91EC601DF91CF911F910F91E3
:10260000FF90EF90DF90CF90BF90AF909F908F9012
:102610000895FC0181E092E091838083128213820D
:102620001482158208950F93FC0181E092E091835A
:10263000808362834383248305830F910895CF931E
:10264000DF93FC01EB0188819981AA81BB818283A0
:102650009383A483B583CF01DF91CF91089581E067
:1026600092E090937402809373021092750210921C
:10267000760210927702109278020895FC01848508
:102680009585FC01E05CFF4F208131818E5B9F4F7F
:10269000FC0180819181281B390B2F733070C90197
:1026A0000895FC0184859585FC01E05CFF4F408125
:1026B0005181FC01EE5BFF4F2081318142175307AE
:1026C00041F00190F081E02DE80FF91F208130E00A
:1026D00002C02FEF3FEFC9010895FC018485958565
:1026E000FC01E05CFF4F40815181FC01EE5BFF4F3C
:1026F000208131814217530771F0A081B181A80F69
:10270000B91F2C918081918101968F739070918374
:10271000808330E002C02FEF3FEFC9010895DC0154
:102720001E968D919C911F97FC01E05CFF4F8E5B84
:102730009F4F40815181DC012D913C9111974217AF
:102740005307B9F708951F93FC01162F2685378587
:10275000D901A05CBF4F8D919C91019660E470E01F
:102760000E947B16D901AE5BBF4F4D915C911197D2
:1027700084179507D1F3D901A05CBF4F0D90BC9190
:10278000A02DA20FB31F1C93A685B785A05CBF4FD9
:1027900011969C938E93A689B7892C9181E090E045
:1027A000058C02C0880F991F0A94E2F7282B2C93FE
:1027B00081E090E01F910895FB01E05CFF4F2081D4
:1027C00031812F5F3F4F2F733070DB01AE5BBF4F06
:1027D0004D915C9111972417350739F0A081B18193
:1027E000A60FB71F8C9331832083089508951F92FD
:1027F0000F920FB60F9211242F933F934F935F9335
:102800006F937F938F939F93AF93BF93EF93FF93B8
:102810008091C60069E772E00E94DC13FF91EF919E
:10282000BF91AF919F918F917F916F915F914F91E8
:102830003F912F910F900FBE0F901F90189581E040
:1028400093E00E943E13009711F00E94F613089542
:102850001F920F920FB60F9211242F933F935F9305
:102860006F937F938F939F93AF93BF93EF93FF9358
:102870002091FD023091FE028091FF0290910003B1
:102880002817390731F48091C1008F7D8093C100F2
:1028900016C0E091FF02F0910003E354FD4F208148
:1028A0008091FF0290910003019660E470E00E9425
:1028B0007B16909300038093FF022093C600FF9144
:1028C000EF91BF91AF919F918F917F916F915F91A8
:1028D0003F912F910F900FBE0F901F901895DF9290
:1028E000EF92FF920F931F93CF93DF93EC017A0146
:1028F0008B01DD24D394403081EE580780E06807D7
:1029000080E0780749F4DD24EC89FD89108260E8D5
:1029100074E88EE190E00FC0EC89FD8981E090E0E1
:102920000E8C02C0880F991F0A94E2F7808360E042
:1029300079E08DE390E0A80197010E948E16215066
:10294000304040405040569547953795279580E157
:102950002030380710F0DD20B1F6E889F98930839E
:10296000EA89FB892083EE89FF89408181E090E03C
:102970009C010A8C02C0220F331F0A94E2F7422BFB
:102980004083EE89FF8940819C010B8C02C0220F9D
:10299000331F0A94E2F7422B4083EE89FF8940817E
:1029A0009C010C8C02C0220F331F0A94E2F7422BC9
:1029B0004083EE89FF8920810D8C02C0880F991F0A
:1029C0000A94E2F7809582238083DF91CF911F9153
:1029D0000F91FF90EF90DF900895109204031092F2
:1029E000030388EE93E0A0E0B0E0809305039093AA
:1029F0000603A0930703B0930803E3E0F3E087E046
:102A000092E09293829389E792E0958784878DEB99
:102A100092E09787868785EC90E0918B808B84ECA1
:102A200090E0938B828B80EC90E0958B848B81EC93
:102A300090E0978B868B86EC90E0918F808F84E07E
:102A4000828F83E0838F87E0848F85E0858F81E0AC
:102A5000868F0895CF93DF930E948B120E9494007B
:102A6000CFE1D4E10E94EE002097E1F30E941F1411
:102A7000F9CFCF92DF92EF92FF920F931F93CF93F4
:102A8000DF936C017B018A01C0E0D0E00FC0D70169
:102A90006D917D01D601ED91FC910190F081E02DC9
:102AA000C6010995C80FD91F015010400115110525
:102AB00071F7CE01DF91CF911F910F91FF90EF90B1
:102AC000DF90CF900895DB010D900020E9F7AD0174
:102AD00041505040461B570BDC01ED91FC910280A8
:102AE000F381E02D099508950E9463150895DC0196
:102AF000ED91FC910190F081E02D099508959C01E4
:102B0000CB01DB01ED91FC910190F081E02DB90149
:102B1000099508950F931F93CF93DF93EC016DE018
:102B20000E9477158C01CE016AE00E947715080F8C
:102B3000191FC801DF91CF911F910F9108950F9335
:102B40001F93CF93DF93EC010E9463158C01CE019C
:102B50000E948A15080F191FC801DF91CF911F919C
:102B60000F9108950F931F93CF93DF93EC010E9471
:102B70007F158C01CE010E948A15080F191FC8010C
:102B8000DF91CF911F910F9108958F929F92AF92F5
:102B9000BF92CF92DF92EF92FF920F931F93DF933A
:102BA000CF93CDB7DEB7A1970FB6F894DEBF0FBEB7
:102BB000CDBF6C01042FE52FCB01122F19A22230BB
:102BC00008F41AE021E2E22EF12CEC0EFD1E812E1B
:102BD0009924AA24BB2403C0022FE32FCA01602F2B
:102BE0007E2FA50194010E948E16129F802D112424
:102BF000081B0894E108F1080A3014F4005D01C0D4
:102C0000095CF7010083211531054105510521F7C4
:102C1000C601B7010E946315A1960FB6F894DEBFF6
:102C20000FBECDBFCF91DF911F910F91FF90EF901D
:102C3000DF90CF90BF90AF909F908F900895211517
:102C4000310549F4DC01ED91FC910190F081E02D1A
:102C5000642F099508950E94C51508959A01462F7D
:102C600050E060E070E00E941F160895CF92DF925E
:102C7000EF92FF920F931F93CF93DF93EC017A01B2
:102C80008B012115310541F4E881F9810190F08132
:102C9000E02D642F09951AC02A303105A9F477FF79
:102CA00012C06DE20E9477156C0144275527BA01C6
:102CB0004E195F09600B710BCE012AE00E94C51509
:102CC000C80ED91E04C02AE00E94C5156C01C601B9
:102CD000DF91CF911F910F91FF90EF90DF90CF90F8
:102CE00008959A01FB01AF01662757FD6095762F85
:102CF0000E943616089597FB092E07260AD077FD05
:102D000004D02ED006D000201AF4709561957F4F24
:102D10000895F6F7909581959F4F0895A1E21A2E98
:102D2000AA1BBB1BFD010DC0AA1FBB1FEE1FFF1F6F
:102D3000A217B307E407F50720F0A21BB30BE40BBF
:102D4000F50B661F771F881F991F1A9469F7609506
:102D50007095809590959B01AC01BD01CF010895C0
:102D6000AA1BBB1B51E107C0AA1FBB1FA617B707B1
:102D700010F0A61BB70B881F991F5A95A9F78095CD
:102D80009095BC01CD010895EE0FFF1F0590F491C1
:082D9000E02D0994F894FFCF37
:102D980073657276657220697320617420006E65B0
:102DA8007720636C69656E7400485454502F312E37
:102DB8003120323030204F4B00436F6E74656E7493
:102DC8002D547970653A20746578742F68746D6C29
:102DD80000436F6E6E656374696F6E3A20636C6F43
:102DE800736500526566726573683A2035003C2148
:102DF800444F43545950452048544D4C3E003C687C
:102E0800746D6C3E00616E616C6F6720696E7075E1
:102E180074200020697320003C6272202F3E003C21
:102E28002F68746D6C3E00636C69656E742064690C
:102E3800736F6E6E656374656400DEADBEEFFEEDA4
:102E480000040100000000D001570248022E0205CC
:102E580002E6018203A40229023D031903FD0100D1
:102E6800000000F903D0040F0400000000740735C7
:102E7800086E08CA07A1078A07750859085008BFCD
:102E8800084B08E407C50768074C077007000000EF
:102E980000C61200000000A31339153E136D13512C
:042EA800138F130071
:00000001FF
